:020000040000FA
:060000000A128A11122809
:10000800FE00030EF2000408F3000A08F40083124D
:1000180003137F08F5000A128A1136280A128A117A
:1000280015288317E830FD000130FE000930FF0075
:10003800903084000A128A11F6210A128A11831359
:100048005C30FD000130FE00B630FF002030840037
:100058000A128A11F6210A128A11E00183010A1292
:100068008A1161298C1E39283A28FC281A08F000C0
:100078007008E00061306006031D43284428FC280E
:10008800F601F70183160313981C4B284C284628C1
:100098007608F0007007203E84008313000883125E
:1000A800031399001A30F100F830F000F00B5A28C9
:1000B800F10B5A2800000130F6070318F70A003040
:1000C800F7077708803AFF0080307F02031D6E280B
:1000D80009307602031C712872284628F801F901B4
:1000E80083160313981C79287A2874287808F00056
:1000F8007007423E8400831300088312031399009B
:100108001A30F100F830F000F00B8828F10B88283D
:1001180000000130F8070318F90A0030F9077908D8
:10012800803AFF0080307F02031D9C280730780248
:10013800031C9F28A0287428FA01FB0183160313C7
:10014800981CA728A828A2287A08F0007007503E13
:100158008400831300088312031399001A30F100F6
:10016800F830F000F00BB628F10BB628000001308B
:10017800FA070318FB0A0030FB077B08803AFF00E8
:1001880080307F02031DCA2805307A02031CCD285F
:10019800CE28A228FC01FD0183160313981CD5283C
:1001A800D628D0287C08F0007007323E84008313DC
:1001B80000088312031399001A30F100F830F00098
:1001C800F00BE428F10BE42800000130FC070318C9
:1001D800FD0A0030FD077D08803AFF0080307F026D
:1001E800031DF82808307C02031CFB28FC28D028B3
:1001F800750883120313FF0074088A0073088400CB
:10020800720E8300FE0E7E0E090050340034523404
:1002180000344534003443340034493400344F3416
:1002280000344E34003445340034203400344C3427
:10023800003441340034203400345434003445341C
:100248000034433400344C34003441340034203416
:100258000034223400344134003422340034203451
:1002680000345034003441340034523400344134C2
:1002780000342034003456340034453400345234C9
:10028800003420340034493400344E3400345434BB
:100298000034453400344734003452340034413497
:1002A80000344E340034543400344534003453346C
:1002B80000340D3400340D340034831603138717CB
:1002C8000713263098009030831203139800831682
:1002D80003178701C0308B002030831603138C006E
:1002E8001930990083125A035B04031D7C297D2968
:1002F800AE29DE01DF0183160313981C84298529A2
:100308007F29831203135E08DC005C07903E84009B
:10031800831700089900343083120313DD00F1308D
:10032800DC00DC0B9529DD0B9529013083120313C2
:10033800DE070318DF0A0030DF075F08803AFF0096
:1003480080307F02031DAA292C305E02031CAD29D0
:10035800AE297F2983120313DA01DB0176290A12F9
:100368008A1112284634003445340034523400349B
:1003780044340034493400344E34003441340034B9
:100388004E3400340D3400344334003441340034E6
:10039800503400344F340034523400344134003483
:1003A8004C3400340D3400344A34003455340034AD
:1003B800413400344E34003450340034493400346D
:1003C8000D3400344C34003455340034493400348E
:1003D800533400340D340034013400347E088A006C
:1003E8007F0882000A128A11F2210A128A118000FB
:1003F800840A04087D0603190034FF0A0319FE0A5B
:02040800F629D3
:04400E00E52FFF3F5C
:00000001FF
